:1000000073C00000A0C000009EC000009CC00000A3
:100010009AC0000098C0000096C0000094C0000084
:1000200092C0000090C000008EC000008CC0000094
:100030008AC0000088C0000086C0000084C00000A4
:1000400082C0000080C000007EC000007CC00000B4
:100050007AC0000078C0000076C000001FC3000016
:1000600072C00000E5C20000BAC200006CC000000F
:100070006AC0000068C0000066C0000064C00000E4
:1000800062C0000060C000005EC000005CC00000F4
:100090005AC0000058C0000056C0000054C0000004
:1000A00052C0000050C000004EC000004CC0000014
:1000B0004AC0000048C0000046C0000044C0000024
:1000C00042C0000040C000003EC000003CC0000034
:1000D0003AC0000038C0000036C0000034C0000044
:1000E00032C000009803BE0511241FBECFEFD1E23D
:1000F000DEBFCDBF00E00CBF12E0A0E0B2E0E8EE52
:10010000F1E100E00BBF02C007900D92A436B107E9
:10011000D9F723E0A4E6B2E001C01D92A531B207F1
:10012000E1F710E0C3E7D0E000E005C02197010946
:10013000802FFE0126D6C237D10780E00807B1F72D
:100140006AD30C94E3085CCF0895AF92BF92CF922C
:10015000DF92EF92FF920F931F93CF93DF936C0187
:100160007B018B01040F151FEB015E01AE18BF0868
:10017000C017D10759F06991D601ED91FC9101901A
:10018000F081E02DC6011995892B79F7C501DF9122
:10019000CF911F910F91FF90EF90DF90CF90BF9084
:1001A000AF900895FC01538D448D252F30E0842FAE
:1001B00090E0821B930B541710F0CF96089501978F
:1001C0000895FC01918D828D981761F0A28DAE0F7C
:1001D000BF2FB11D5D968C91928D9F5F9F73928F03
:1001E00090E008958FEF9FEF08952FB7F8948091D6
:1001F0006A0290916B02A0916C02B0916D022FBFC8
:100200008093760290937702A0937802B09379025C
:100210008EE692E0D6DF97FF26C02FB7F894809144
:100220006A0290916B02A0916C02B0916D022FBF97
:100230004091760250917702609178027091790234
:10024000841B950BA60BB70B409172025091730261
:10025000609174027091750284179507A607B7071D
:10026000B8F28FEF9FEF0895FC01918D828D981762
:1002700031F0828DE80FF11D858D90E008958FEFAC
:100280009FEF0895FC01918D228D892F90E0805C75
:100290009F4F821B91098F73992708958EE692E0F4
:1002A000F1DF21E0892B09F420E0822F0895FC0181
:1002B000A48DA80FB92FB11DA35ABF4F2C91848DC7
:1002C00090E001968F739927848FA689B7892C9324
:1002D000A089B1898C91837080648C93938D848D77
:1002E000981306C00288F389E02D80818F7D80837A
:1002F0000895EF92FF920F931F93CF93DF93EC013A
:1003000081E0888F9B8D8C8D98131AC0E889F989BC
:10031000808185FF15C09FB7F894EE89FF896083BF
:10032000E889F98980818370806480839FBF81E040
:1003300090E0DF91CF911F910F91FF90EF90089582
:10034000F62E0B8D10E00F5F1F4F0F731127E02E5D
:100350008C8D8E110BC00FB607FCFACFE889F98996
:10036000808185FFF5CFCE01A2DFF2CFEB8DEC0FC0
:10037000FD2FF11DE35AFF4FF0829FB7F8940B8FCA
:10038000EA89FB8980818062D0CFCF93DF93EC0133
:10039000888D8823B1F0AA89BB89E889F9898C9175
:1003A00085FD03C0808186FD0CC00FB607FCF7CF2A
:1003B0008C9185FFF2CF808185FFEDCFCE0177DF75
:1003C000EACFDF91CF91089580E090E0892B21F072
:1003D00065DF81110E94000080E090E0892B49F0E8
:1003E00080E090E0892B29F00E94000081110E949A
:1003F000000080E090E0892B49F080E090E0892BBC
:1004000029F00E94000081110E94000080E090E02D
:10041000892B49F080E090E0892B29F00E940000B0
:1004200081110C94000008953FB7F8948091650203
:1004300090916602A0916702B091680226B5A89BD0
:1004400005C02F3F19F00196A11DB11D3FBFBA2F66
:10045000A92F982F8827BC01CD01620F711D811D26
:10046000911D42E0660F771F881F991F4A95D1F7AB
:1004700008958F929F92AF92BF920F931F93CF9345
:10048000DF93CDB7DEB7A1970FB6F894DEBF0FBEEE
:10049000CDBF19A2423008F44AE08E010F5D1F4F14
:1004A000842E912CB12CA12CA501940139D4E62FD6
:1004B000B901CA01EA303CF5E05DD801EE938D0147
:1004C000232B242B252B81F790E080E0109761F0FF
:1004D000FD0101900020E9F73197AF014A1B5B0B4A
:1004E000BD018EE692E031DEA1960FB6F894DEBF34
:1004F0000FBECDBFDF91CF911F910F91BF90AF90F5
:100500009F908F900895E95CD8CFCF92DF92EF92C1
:10051000FF92CF93DF936B017C016DE28EE692E058
:10052000E8DEEC0166277727CB016C197D098E097F
:100530009F094AE09EDF8C0F9D1FDF91CF91FF90B6
:10054000EF90DF90CF900895FC0101900020E9F733
:100550003197AF01481B590BBC018EE692E0F5CDF7
:1005600020910F0330911003232B39F421E0FC017B
:100570008081882359F020E009C0BC0180910B03E1
:1005800090910C0310D621E0892BA9F7822F0895B2
:100590000F931F93CF93DF93EC018881998100978C
:1005A00059F02A813B812617370730F081E0DF912F
:1005B000CF911F910F9108958B016F5F7F4F0ED5E3
:1005C000009759F0998388831B830A832C813D818E
:1005D000232B61F7FC011082E9CF80E0E8CF1F9266
:1005E0000F920FB60F9211240BB60F922F933F93D9
:1005F0004F935F936F937F938F939F93AF93BF932B
:10060000EF93FF938EE692E052DEFF91EF91BF9160
:10061000AF919F918F917F916F915F914F913F919A
:100620002F910F900BBE0F900FBE0F901F9018953B
:100630001F920F920FB60F9211240BB60F922F93A9
:100640008F939F93EF93FF93E0917E02F0917F024F
:100650008081E0918402F091850282FD1DC090812D
:10066000809187028F5F8F7320918802821741F0FB
:10067000E0918702F0E0E259FD4F958F8093870269
:10068000FF91EF919F918F912F910F900BBE0F9043
:100690000FBE0F901F9018958081F2CF1F920F927E
:1006A0000FB60F9211242F933F938F939F93AF9385
:1006B000BF9380916A0290916B02A0916C02B091FD
:1006C0006D023091640223E0230F2D3758F5019617
:1006D000A11DB11D2093640280936A0290936B0266
:1006E000A0936C02B0936D028091650290916602B6
:1006F000A0916702B09168020196A11DB11D80937F
:10070000650290936602A0936702B0936802BF915E
:10071000AF919F918F913F912F910F900FBE0F90AE
:100720001F90189526E8230F0296A11DB11DD2CF68
:10073000109271021092700288EE93E0A0E0B0E097
:100740008093720290937302A0937402B093750227
:100750008EE092E090936F0280936E0285EC90E0C1
:1007600090937B0280937A0284EC90E090937D02D8
:1007700080937C0280EC90E090937F0280937E02D5
:1007800081EC90E0909381028093800282EC90E073
:10079000909383028093820286EC90E0909385028E
:1007A000809384021092870210928802109289022C
:1007B00010928A0210920C0310920B0310920E03F7
:1007C00010920D031092100310920F0370E060E07E
:1007D0008BE093E0DDDE20910B0330910C0381115F
:1007E00012C02115310511F0C9016FD310920C030D
:1007F00010920B031092100310920F0310920E032D
:1008000010920D0308951092100310920F0364E5E7
:1008100072E0C901D1C4CF93DF9300D000D01F9202
:100820001F92CDB7DEB7789484B5826084BD84B55D
:10083000816084BD85B5826085BD85B5816085BDDB
:1008400080916E00816080936E0010928100809193
:10085000810082608093810080918100816080931B
:100860008100809180008160809380008091B10040
:1008700084608093B1008091B00081608093B0006B
:1008800080919100826080939100809191008160BD
:10089000809391008091900081608093900080917E
:1008A000A10082608093A1008091A100816080936B
:1008B000A1008091A00081608093A000809121011F
:1008C00082608093210180912101816080932101C8
:1008D0008091200181608093200180917A00846062
:1008E00080937A0080917A00826080937A00809170
:1008F0007A00816080937A0080917A00806880938A
:100900007A001092C100E0917E02F0917F0282E0B5
:100910008083E0917A02F0917B021082E0917C0268
:10092000F0917D028FEC808310928602E09182022A
:10093000F091830286E08083E0918002F091810251
:10094000808180618083E0918002F09181028081CA
:1009500088608083E0918002F091810280818068CC
:100960008083E0918002F091810280818F7D80837D
:100970008EE692E00ADD332433949AE5492E512C19
:10098000612C712C8EE692E07DDC181619060CF0B5
:100990006EC01A8219821C821B821E821D8270E028
:1009A00060E0CE010196F4DD29813A8181112AC0EF
:1009B0002115310511F0C90188D21A8219821E82CF
:1009C0001D821C821B8211DC97FD23C0833291059E
:1009D00001F18F8318860D811E810F5F1F4FB801B3
:1009E000CE010196D5DD882371F329813A818D816D
:1009F0009E81BE01695F7F4F820F931FDDD31E83EF
:100A00000D83E1CF1E821D8264E572E0C901D4D35B
:100A1000DACF80910B0390910C03009709F46BC01F
:100A200069817A816115710509F464C040910D03F3
:100A300050910E032D813E814217530708F45AC08E
:100A4000BBD38D819E819093100380930F031E82F0
:100A50001D8289819A81009709F037D28FE192E057
:100A60007FDD882309F45EC08AE292E06DDD80912B
:100A70006902882309F43CC08CE592E065DDCFD0A3
:100A80002CE830E040E050E01FD197FF71C03DDD21
:100A900080E692E059DDC3D0A301920115D197FF02
:100AA0006AC033DD83E592E04FDDBEDC4B015C01C3
:100AB00088EEC82E83E0D82EE12CF12CB5DC681925
:100AC00079098A099B09683E734081059105B0F355
:100AD00021E0C21AD108E108F10888EE880E83E00F
:100AE000981EA11CB11CC114D104E104F10431F71A
:100AF0006BDC48CFEAD189819A8190930C03809373
:100B00000B038B819C8190930E0380930D038D8149
:100B10009E819093100380930F031A8219821C8286
:100B20001B8295CF8CE192E01BDD882319F087E2D0
:100B300092E09CCF85E392E013DD882319F08AE3ED
:100B400092E094CF82E492E00BDD882319F030929A
:100B500069028DCF87E492E003DD882331F08CE4D5
:100B600092E0F2DC1092690282CF85E592E0F9CF43
:100B70004AE07FDC8DCF4AE07CDC94CF80910B0390
:100B800090910C03009709F0A0C108958F929F9255
:100B9000AF92BF92CF92DF92EF92FF92CF93DF930B
:100BA000EC01688179818A819B81611571058105DC
:100BB000910521F464E279ED8BE597E02DE133EFC7
:100BC00041E050E081D049015A019B01AC01A7EA04
:100BD000B1E496D06B017C01ACEEB4EFA5019401B9
:100BE0009BD0C60ED71EE81EF91EF7FE06C081E098
:100BF000C81AD108E10880E8F80AC882D982EA82D6
:100C0000FB82C701B6019F77DF91CF91FF90EF90F4
:100C1000DF90CF90BF90AF909F908F9008958F926C
:100C20009F92AF92BF92CF92DF92EF92FF9260912C
:100C300000027091010280910202909103026115FD
:100C400071058105910521F464E279ED8BE597E06A
:100C50002DE133EF41E050E037D049015A019B01CB
:100C6000AC01A7EAB1E44CD06B017C01ACEEB4EF6F
:100C7000A501940151D0C60ED71EE81EF91EF7FE3D
:100C800006C081E0C81AD108E10880E8F80AC092DD
:100C90000002D0920102E0920202F0920302C70128
:100CA000B6019F77FF90EF90DF90CF90BF90AF900D
:100CB0009F908F900895609300027093010280933B
:100CC0000202909303020895052E97FB16F40094F8
:100CD0000FD057FD05D024D007FC02D046F408C041
:100CE00050954095309521953F4F4F4F5F4F089558
:100CF00090958095709561957F4F8F4F9F4F089588
:100D000031D0A59F900DB49F900DA49F800D911D93
:100D100011240895B7FFF4CFF3DF821B930B0895DE
:100D2000A1E21A2EAA1BBB1BFD010DC0AA1FBB1FEF
:100D3000EE1FFF1FA217B307E407F50720F0A21B61
:100D4000B30BE40BF50B661F771F881F991F1A94CE
:100D500069F760957095809590959B01AC01BD01F8
:100D6000CF010895A29FB001B39FC001A39F700D52
:100D7000811D1124911DB29F700D811D1124911DA3
:100D80000895EE0FFF1F881F8BBF0790F691E02D8F
:100D900019940F931F93CF93DF938230910510F432
:100DA00082E090E0E0911303F091140330E020E042
:100DB000B0E0A0E0309799F42115310509F44AC05C
:100DC000281B390B24303105D8F58A819B816115A8
:100DD000710589F1FB0193838283FE0111C040817B
:100DE00051810281138148175907E0F048175907CC
:100DF00099F4109761F012960C93129713961C9326
:100E00003296CF01DF91CF911F910F9108950093FA
:100E1000130310931403F4CF2115310551F0421739
:100E2000530738F0A901DB019A01BD01DF01F80188
:100E3000C1CFEF01F9CF9093140380931303CDCF6B
:100E4000FE01E20FF31F8193919322503109398300
:100E50002883D7CF2091110330911203232B41F423
:100E60002091060230910702309312032093110360
:100E700020910402309105022115310541F42DB76E
:100E80003EB74091080250910902241B350BE091B6
:100E90001103F0911203E217F307A0F42E1B3F0B8E
:100EA0002817390778F0AC014E5F5F4F24173507DC
:100EB00048F04E0F5F1F509312034093110381932C
:100EC00091939FCFF0E0E0E09CCFCF93DF9300972A
:100ED000E9F0FC01329713821282A0911303B091C2
:100EE0001403ED0130E020E01097A1F4208131815E
:100EF000820F931F20911103309112032817390795
:100F000009F061C0F0931203E0931103DF91CF91D8
:100F10000895EA01CE17DF07E8F54A815B819E015B
:100F200041155105B1F7E901FB83EA8349915991D4
:100F3000C40FD51FEC17FD0761F4808191810296E3
:100F4000840F951FE90199838883828193819B8314
:100F50008A83F0E0E0E012968D919C9113970097C0
:100F6000B9F52D913C911197CD010296820F931FF7
:100F700020911103309112032817390739F6309761
:100F800051F51092140310921303B0931203A0931F
:100F90001103BCCFD383C28340815181840F951F3D
:100FA000C817D90761F44E5F5F4F88819981480F58
:100FB000591F518340838A819B81938382832115AA
:100FC000310509F0B0CFF0931403E09313039ECFE3
:100FD000FD01DC01C0CF13821282D7CF4F925F9206
:100FE0006F927F928F929F92AF92BF92CF92DF9239
:100FF000EF92FF920F931F93CF93DF938C01009793
:1010000091F4CB01DF91CF911F910F91FF90EF9061
:10101000DF90CF90BF90AF909F908F907F906F9018
:101020005F904F90B6CEFC01E60FF71F9C01225057
:101030003109E217F30708F4AAC0D901CD91DC9178
:101040001197C617D70718F1C530D10570F0CE013A
:1010500004978617970748F0C61BD70B2297C193B2
:10106000D1936D937C93CF0130DFC801DF91CF9195
:101070001F910F91FF90EF90DF90CF90BF90AF90B6
:101080009F908F907F906F905F904F9008955B013D
:10109000AC1ABD0A4C018C0E9D1EA0911303B09199
:1010A0001403512C412CF12CE12C109731F5809137
:1010B0001103909112038815990509F05CC046163A
:1010C000570608F058C080910402909105020097DD
:1010D00041F48DB79EB74091080250910902841BDC
:1010E000950BE817F90708F052C0F0931203E0934C
:1010F0001103F90171836083B8CF8D919C91119791
:1011000012966C90129713967C901397A815B905B8
:1011100059F56C0142E0C40ED11CCA14DB0420F165
:10112000AC014A195B09DA011296159780F06282C8
:10113000738251834083D9016D937C93E114F10450
:1011400071F0D7011396FC93EE9312978ECF2296EF
:101150008C0F9D1FF90191838083F301EFCFF093F2
:101160001403E093130381CF4816590608F42C01A9
:101170007D01D3019ACFCB010CDE7C01009739F0C1
:10118000AE01B80107D0C801A0DE87016ECF10E024
:1011900000E06BCFFB01DC0102C001900D924150D9
:1011A0005040D8F70895FB01DC018D910190801922
:1011B0000110D9F3990B0895FB01DC0101900D9208
:1011C0000020E1F7089510E0C3E7D0E000E005C09B
:1011D000802FFE01D6DD2196011DC437D10780E0A6
:0811E0000807B1F7F894FFCFF6
:1011E80001000000000015038000000000007901E4
:1011F800A500D200C5014201E1003401444953432E
:101208004F4E4E45435400444953434F4E4E454379
:1012180054454423005445535400544553544F4BAC
:10122800230053454E440053544F500053544F50DD
:1012380050454423004552524F52230024313A006E
:041248002F323A0007
:00000001FF
