:100000000C9436000C945E000C945E000C945E0020
:100010000C945E000C945E000C945E000C945E00E8
:100020000C945E000C945E000C945E000C945E00D8
:100030000C945E000C945E000C945E000C945E00C8
:100040000C940D030C945E000C94DB020C94B5022E
:100050000C945E000C945E000C945E000C945E00A8
:100060000C945E000C945E0057030B0611241FBE17
:10007000CFEFD8E0DEBFCDBF11E0A0E0B1E0E0EC13
:10008000F2E102C005900D92AE39B107D9F722E036
:10009000AEE9B1E001C01D92AF34B207E1F710E064
:1000A000C5E3D0E004C02197FE010E945207C4338B
:1000B000D107C9F70E94CD030C9453090C9400009A
:1000C0000895AF92BF92CF92DF92EF92FF920F937B
:1000D0001F93CF93DF936C017B018B01040F151FDE
:1000E000EB015E01AE18BF08C017D10759F0699146
:1000F000D601ED91FC910190F081E02DC6010995AA
:10010000892B79F7C501DF91CF911F910F91FF9056
:10011000EF90DF90CF90BF90AF900895FC01538D8A
:10012000448D252F30E0842F90E0821B930B5417D1
:1001300010F0CF96089501970895FC01918D828D5E
:10014000981761F0A28DAE0FBF2FB11D5D968C91F7
:10015000928D9F5F9F73928F90E008958FEF9FEF36
:1001600008952FB7F8948091A4019091A501A091D2
:10017000A601B091A7012FBF8093B0019093B10168
:10018000A093B201B093B30188EA91E00E949D0070
:1001900097FF26C02FB7F8948091A4019091A501F4
:1001A000A091A601B091A7012FBF4091B00150913D
:1001B000B1016091B2017091B301841B950BA60B44
:1001C000B70B4091AC015091AD016091AE017091BF
:1001D000AF0184179507A607B707B0F28FEF9FEF1F
:1001E0000895FC01918D828D981731F0828DE80F72
:1001F000F11D858D90E008958FEF9FEF0895FC012C
:10020000918D228D892F90E0805C9F4F821B9109F8
:100210008F739927089588EA91E00E94FF0021E0FA
:10022000892B09F420E0822F089580E090E0892B4B
:1002300029F00E940B0181110C9400000895FC012B
:10024000A48DA80FB92FB11DA35ABF4F2C91848D37
:1002500090E001968F739927848FA689B7892C9394
:10026000A089B1898C91837080648C93938D848DE7
:10027000981306C00288F389E02D80818F7D8083EA
:100280000895EF92FF920F931F93CF93DF93EC01AA
:1002900081E0888F9B8D8C8D98131AC0E889F9892D
:1002A000808185FF15C09FB7F894EE89FF89608330
:1002B000E889F98980818370806480839FBF81E0B1
:1002C00090E0DF91CF911F910F91FF90EF900895F3
:1002D000F62E0B8D10E00F5F1F4F0F731127E02ECE
:1002E0008C8D8E110CC00FB607FCFACFE889F98906
:1002F000808185FFF5CFCE010E941F01F1CFEB8DEC
:10030000EC0FFD2FF11DE35AFF4FF0829FB7F894D9
:100310000B8FEA89FB8980818062CFCFCF93DF93F7
:10032000EC01888D8823B9F0AA89BB89E889F9890D
:100330008C9185FD03C0808186FD0DC00FB607FC42
:10034000F7CF8C9185FFF2CF808185FFEDCFCE0175
:100350000E941F01E9CFDF91CF9108953FB7F89434
:1003600080919F019091A001A091A101B091A20163
:1003700026B5A89B05C02F3F19F00196A11DB11D00
:100380003FBFBA2FA92F982F8827BC01CD01620F3C
:10039000711D811D911D42E0660F771F881F991FF7
:1003A0004A95D1F708958F929F92AF92BF920F9383
:1003B0001F93CF93DF93CDB7DEB7A1970FB6F89415
:1003C000DEBF0FBECDBF19A2423008F44AE08E0155
:1003D0000F5D1F4F842E912CB12CA12CA5019401EF
:1003E0000E942107E62FB901CA01EA3044F5E05D19
:1003F000D801EE938D01232B242B252B79F790E048
:1004000080E0109769F0FD0101900020E9F7319735
:10041000AF014A1B5B0BBD0188EA91E00E946100BD
:10042000A1960FB6F894DEBF0FBECDBFDF91CF917E
:100430001F910F91BF90AF909F908F900895E95CAE
:10044000D7CFFC0101900020E9F73197AF01481B9D
:10045000590BBC0188EA91E00C946100CF92DF92C5
:10046000EF92FF92CF93DF9397FF1BC06B017C014C
:100470006DE288EA91E00E944101EC01662777274E
:10048000CB016C197D098E099F094AE00E94D301B6
:100490008C0F9D1FDF91CF91FF90EF90DF90CF9059
:1004A00008954AE0DF91CF91FF90EF90DF90CF90D9
:1004B0000C94D3012091490230914A02232B39F444
:1004C00021E0FC018081882361F020E00AC0BC01AA
:1004D00080914502909146020E94430921E0892BB8
:1004E000A1F7822F08950F931F93CF93DF93EC0111
:1004F00088819981009759F02A813B812617370717
:1005000030F081E0DF91CF911F910F9108958B0121
:100510006F5F7F4F0E947D08009759F09983888311
:100520001B830A832C813D81232B59F7FC01108208
:10053000E8CF80E0E7CFCF92DF92EF92FF926B019E
:100540007C01C114D104E104F10441F00E94600671
:10055000A70196010E94B8066B017C01C701B60194
:10056000FF90EF90DF90CF9008951F920F920FB6FB
:100570000F9211242F933F934F935F936F937F9329
:100580008F939F93AF93BF93EF93FF9388EA91E08C
:100590000E941F01FF91EF91BF91AF919F918F91A9
:1005A0007F916F915F914F913F912F910F900FBE6F
:1005B0000F901F9018951F920F920FB60F92112453
:1005C0002F938F939F93EF93FF93E091B801F09156
:1005D000B9018081E091BE01F091BF0182FD1BC095
:1005E00090818091C1018F5F8F732091C20182172A
:1005F00041F0E091C101F0E0E855FE4F958F809306
:10060000C101FF91EF919F918F912F910F900FBE9C
:100610000F901F9018958081F4CF1F920F920FB604
:100620000F9211242F933F938F939F93AF93BF9378
:100630008091A4019091A501A091A601B091A7017C
:1006400030919E0123E0230F2D3758F50196A11D0F
:10065000B11D20939E018093A4019093A501A093C6
:10066000A601B093A70180919F019091A001A09154
:10067000A101B091A2010196A11DB11D80939F011E
:100680009093A001A093A101B093A201BF91AF915B
:100690009F918F913F912F910F900FBE0F901F90C0
:1006A000189526E8230F0296A11DB11DD2CF1092F6
:1006B000AB011092AA0188EE93E0A0E0B0E0809335
:1006C000AC019093AD01A093AE01B093AF018EE069
:1006D00091E09093A9018093A80185EC90E090931C
:1006E000B5018093B40184EC90E09093B7018093BE
:1006F000B60180EC90E09093B9018093B80181EC51
:1007000090E09093BB018093BA0182EC90E09093CB
:10071000BD018093BC0186EC90E09093BF01809373
:10072000BE011092C1011092C2011092C301109239
:10073000C401109246021092450210924802109293
:10074000470210924A021092490270E060E085E48C
:1007500092E00E947302209145023091460281117D
:1007600013C02115310519F0C9010E94F407109238
:1007700046021092450210924A02109249021092CB
:10078000480210924702089510924A0210924902BC
:1007900064E571E0C9010C944C09CF93DF93CDB7A8
:1007A000DEB728970FB6F894DEBF0FBECDBF7894A2
:1007B00084B5826084BD84B5816084BD85B5826066
:1007C00085BD85B5816085BD80916E008160809317
:1007D0006E00109281008091810082608093810080
:1007E0008091810081608093810080918000816090
:1007F000809380008091B10084608093B1008091EB
:10080000B00081608093B00080917A008460809312
:100810007A0080917A00826080937A0080917A00D9
:10082000816080937A0080917A00806880937A005A
:100830001092C100E091B801F091B90182E080838B
:10084000E091B401F091B5011082E091B601F09110
:10085000B7018FEC80831092C001E091BC01F09150
:10086000BD0186E08083E091BA01F091BB018081F7
:1008700080618083E091BA01F091BB018081886042
:100880008083E091BA01F091BB0180818068808310
:10089000E091BA01F091BB0180818F7D808388EA6D
:1008A00091E00E948E0190E0E92E90E0F92EDD2487
:1008B000D39488EA91E00E94FF00181619060CF004
:1008C00078C01A8219821C821B821E821D8270E0EF
:1008D00060E0CE0101960E94730229813A81811164
:1008E0002EC02115310519F0C9010E94F4071A82A2
:1008F00019821E821D821C821B820E94B10097FDFC
:1009000026C08332910519F18F8318860D811E81CF
:100910000F5F1F4FB801CE0101960E94730288231A
:1009200061F329813A818D819E81BE01695F7F4F8C
:10093000820F931F0E944C091E830D83DECF1E82FF
:100940001D8264E571E0C9010E944C09D6CF8091F7
:10095000450290914602009709F41BC169817A8192
:100960006115710509F413C1409147025091480285
:100970002D813E814217530708F409C10E944C099A
:100980008D819E8190934A02809349021E821D822E
:1009900089819A81009711F00E94F4078FE191E01C
:1009A0000E945A02882309F40BC18AE291E00E9456
:1009B00021028091A301882309F4DDC08CE591E038
:1009C0000E9421026CE870E080E090E00E949B02AF
:1009D0000E942E0280E691E00E9421026AE570E00A
:1009E00080E090E00E949B020E942E0284E691E04B
:1009F0000E94210264E670E080E090E00E949B0289
:100A00000E942E0288E691E00E94210264E670E0D6
:100A100080E090E00E949B020E942E028CE691E012
:100A20000E94210264E670E080E090E00E949B0258
:100A30000E942E0280E791E00E94210264E670E0AD
:100A400080E090E00E949B020E942E0284E791E0E9
:100A50000E94210264E670E080E090E00E949B0228
:100A60000E942E0288E791E00E94210264E670E075
:100A700080E090E00E949B020E942E028CE791E0B1
:100A80000E94210264E670E080E090E00E949B02F8
:100A90000E942E0280E891E00E94210264E670E04C
:100AA00080E090E00E949B020E942E0285E891E087
:100AB0000E94210264E670E080E090E00E949B02C8
:100AC0000E942E028AE891E00E94210264E670E012
:100AD00080E090E00E949B020E942E028FE891E04D
:100AE0000E94210264E670E080E090E00E949B0298
:100AF0000E942E0284E991E00E94210264E670E0E7
:100B000080E090E00E949B020E942E0289E991E021
:100B10000E94210264E670E080E090E00E949B0267
:100B20000E942E0283E591E00E9421020E94AE0104
:100B30002B013C0188EE882E83E0982EA12CB12C4D
:100B40000E94AE016419750986099709683E7340D1
:100B500081059105A8F321E0821A9108A108B10846
:100B600088EE480E83E0581E611C711C81149104AC
:100B7000A104B10429F7E114F10409F49ACE0E940A
:100B80000B01882309F495CE0E94000092CE0E94AA
:100B9000F40789819A8190934602809345028B8164
:100BA0009C8190934802809347028D819E8190930F
:100BB0004A02809349021A8219821C821B82E6CE65
:100BC0008CE191E00E945A02882319F087E291E0BB
:100BD000EECE85E391E00E945A02882319F08AE361
:100BE00091E0E5CE82E491E00E945A02882319F058
:100BF000D092A301DECE87E491E00E945A028823BE
:100C000039F08CE491E00E9421021092A301D1CE30
:100C100085E591E0F8CF80914502909146020097DA
:100C200011F00C94F40708958F929F92AF92BF92A7
:100C3000CF92DF92EF92FF92CF93DF93EC01688126
:100C400079818A819B81611571058105910521F466
:100C500064E279ED8BE597E02DE133EF41E050E080
:100C60000E94B80649015A019B01AC01A7EAB1E410
:100C70000E94D7066B017C01ACEEB4EFA501940194
:100C80000E94E506C60ED71EE81EF91EF7FE06C036
:100C900081E0C81AD108E10880E8F80AC882D98240
:100CA000EA82FB82C701B6019F77DF91CF91FF9067
:100CB000EF90DF90CF90BF90AF909F908F9008956E
:100CC0008F929F92AF92BF92CF92DF92EF92FF925C
:100CD00060910001709101018091020190910301E6
:100CE000611571058105910521F464E279ED8BE5CB
:100CF00097E02DE133EF41E050E00E94B806490152
:100D00005A019B01AC01A7EAB1E40E94D7066B012E
:100D10007C01ACEEB4EFA50194010E94E506C60E7D
:100D2000D71EE81EF91EF7FE06C081E0C81AD108DA
:100D3000E10880E8F80AC0920001D0920101E09237
:100D40000201F0920301C701B6019F77FF90EF9077
:100D5000DF90CF90BF90AF909F908F900895609359
:100D600000017093010180930201909303010895A3
:100D7000052E97FB1EF400940E94CF0657FD07D066
:100D80000E94210707FC03D04EF40C94CF06509527
:100D90004095309521953F4F4F4F5F4F0895909567
:100DA0008095709561957F4F8F4F9F4F08950E945A
:100DB0004307A59F900DB49F900DA49F800D911D9A
:100DC00011240895B7FF0C94D7060E94D706821B02
:100DD000930B08952F923F924F925F926F927F9262
:100DE0008F929F92AF92BF92CF92DF92EF92FF923B
:100DF0000F931F93CF93DF93CDB7DEB7CA1BDB0BE7
:100E00000FB6F894DEBF0FBECDBF09942A8839888B
:100E100048885F846E847D848C849B84AA84B98492
:100E2000C884DF80EE80FD800C811B81AA81B9819E
:100E3000CE0FD11D0FB6F894DEBF0FBECDBFED01B2
:100E40000895A1E21A2EAA1BBB1BFD010DC0AA1F0B
:100E5000BB1FEE1FFF1FA217B307E407F50720F023
:100E6000A21BB30BE40BF50B661F771F881F991F9E
:100E70001A9469F760957095809590959B01AC01E7
:100E8000BD01CF010895A29FB001B39FC001A39FF0
:100E9000700D811D1124911DB29F700D811D1124B3
:100EA000911D0895EE0FFF1F0590F491E02D099418
:100EB0000F931F93CF93DF938230910510F482E05C
:100EC00090E0E0914D02F0914E0230E020E0B0E081
:100ED000A0E0309799F42115310509F44AC0281B88
:100EE000390B24303105D8F58A819B816115710554
:100EF00089F1FB0193838283FE0111C040815181FE
:100F00000281138148175907E0F04817590799F4EF
:100F1000109761F012960C93129713961C933296C9
:100F2000CF01DF91CF911F910F91089500934D0252
:100F300010934E02F4CF2115310551F0421753079B
:100F400038F0A901DB019A01BD01DF01F801C1CF31
:100F5000EF01F9CF90934E0280934D02CDCFFE0169
:100F6000E20FF31F81939193225031093983288333
:100F7000D7CF20914B0230914C02232B41F420918A
:100F800006013091070130934C0220934B022091CF
:100F90000401309105012115310541F42DB73EB70B
:100FA0004091080150910901241B350BE0914B023F
:100FB000F0914C02E217F307A0F42E1B3F0B281709
:100FC000390778F0AC014E5F5F4F2417350748F0C2
:100FD0004E0F5F1F50934C0240934B0281939193AD
:100FE0009FCFF0E0E0E09CCFCF93DF930097E9F054
:100FF000FC01329713821282A0914D02B0914E02F1
:10100000ED0130E020E01097A1F420813181820FC2
:10101000931F20914B0230914C022817390709F099
:1010200061C0F0934C02E0934B02DF91CF910895A1
:10103000EA01CE17DF07E8F54A815B819E01411581
:101040005105B1F7E901FB83EA8349915991C40F36
:10105000D51FEC17FD0761F4808191810296840F02
:10106000951FE90199838883828193819B838A8379
:10107000F0E0E0E012968D919C9113970097B9F5FE
:101080002D913C911197CD010296820F931F2091D3
:101090004B0230914C022817390739F6309751F539
:1010A00010924E0210924D02B0934C02A0934B024C
:1010B000BCCFD383C28340815181840F951FC81751
:1010C000D90761F44E5F5F4F88819981480F591F9E
:1010D000518340838A819B819383828321153105CB
:1010E00009F0B0CFF0934E02E0934D029ECFFD0188
:1010F000DC01C0CF13821282D7CFB0E0A0E0E3E8DA
:10110000F8E00C94EC068C01009751F4CB010E949E
:1011100058078C01C801CDB7DEB7E0E10C94080791
:10112000FC01E60FF71F9C0122503109E217F3077B
:1011300008F49DC0D901CD91DC911197C617D7074E
:1011400098F0C530D10530F3CE0104978617970784
:1011500008F3C61BD70B2297C193D1936D937C9351
:10116000CF010E94F407D6CF5B01AC1ABD0A4C0137
:101170008C0E9D1EA0914D02B0914E02512C412C1F
:10118000F12CE12C109731F580914B0290914C029B
:101190008815990509F05CC04616570608F058C036
:1011A0008091040190910501009741F48DB79EB79D
:1011B0004091080150910901841B950BE817F9072C
:1011C00008F055C0F0934C02E0934B02F901718393
:1011D0006083A0CF8D919C91119712966C9012977D
:1011E00013967C901397A815B90559F56C0142E048
:1011F000C40ED11CCA14DB0420F1AC014A195B09EE
:10120000DA011296159780F06282738251834083CF
:10121000D9016D937C93E114F10471F0D701139619
:10122000FC93EE93129776CF22968C0F9D1FF901B7
:1012300091838083F301EFCFF0934E02E0934D0250
:1012400069CF4816590608F42C017D01D3019ACFC5
:10125000CB010E9458077C01009749F0AE01B8010C
:101260000E943A09C8010E94F407870153CF10E099
:1012700000E050CFFB01DC0102C001900D92415013
:101280005040D8F70895FB01DC018D910190801941
:101290000110D9F3990B0895FB01DC0101900D9227
:1012A0000020E1F7089510E0C5E3D0E004C0FE019E
:1012B0000E9452072196C633D107C9F7F894FFCF91
:1012C0000100000000004F0280000000000041010A
:1012D00061008E008E01FF009D00F10044495343E0
:1012E0004F4E4E45435400444953434F4E4E4543A1
:1012F00054454423005445535400544553544F4BD4
:10130000230053454E440053544F500053544F5004
:1013100050454423004552524F52230024313A0095
:101320002F323A002F333A002F343A002F353A004B
:101330002F363A002F373A002F383A002F393A002B
:101340002F31303A002F31313A002F31323A002F0D
:0E13500031333A002F31343A002F31353A0054
:00000001FF
